{
  "abi": [
    {
      "inputs": [],
      "name": "getComposition",
      "outputs": [
        {
          "internalType": "address[]",
          "name": "",
          "type": "address[]"
        },
        {
          "internalType": "uint256[]",
          "name": "",
          "type": "uint256[]"
        }
      ],
      "stateMutability": "view",
      "type": "function"
    },
    {
      "inputs": [
        {
          "internalType": "address[]",
          "name": "assets",
          "type": "address[]"
        },
        {
          "internalType": "uint256[]",
          "name": "weights",
          "type": "uint256[]"
        }
      ],
      "name": "setComposition",
      "outputs": [],
      "stateMutability": "nonpayable",
      "type": "function"
    }
  ],
  "bytecode": {
    "object": "0x608060405234801561001057600080fd5b5061069d806100206000396000f3fe608060405234801561001057600080fd5b50600436106100365760003560e01c806308d721021461003b5780631b16d37d1461005a575b600080fd5b61004361006f565b6040516100519291906103e0565b60405180910390f35b61006d61006836600461053a565b610137565b005b336000908152602081815260409182902080548351818402810184019094528084526060938493600184019284918301828280156100d657602002820191906000526020600020905b81546001600160a01b031681526001909101906020018083116100b8575b505050505091508080548060200260200160405190810160405280929190818152602001828054801561012857602002820191906000526020600020905b815481526020019060010190808311610114575b50505050509050915091509091565b805182511461019e5760405162461bcd60e51b815260206004820152602860248201527f41737365747320616e642077656967687473206d757374206265207468652073604482015267616d652073697a6560c01b60648201526084015b60405180910390fd5b60008251116101ef5760405162461bcd60e51b815260206004820152601860248201527f417272617973206d757374206e6f7420626520656d70747900000000000000006044820152606401610195565b600a8251111561024b5760405162461bcd60e51b815260206004820152602160248201527f417272617973206d757374206e6f74206265206c6f6e676572207468616e20316044820152600360fc1b6064820152608401610195565b6000805b82518110156102915782818151811061026a5761026a610609565b60200260200101518261027d9190610635565b9150806102898161064e565b91505061024f565b50806064146102e25760405162461bcd60e51b815260206004820152601760248201527f57656967687473206d7573742073756d20746f203130300000000000000000006044820152606401610195565b3360009081526020818152604090912084516103009286019061032b565b5033600090815260208181526040909120835161032592600190920191850190610390565b50505050565b828054828255906000526020600020908101928215610380579160200282015b8281111561038057825182546001600160a01b0319166001600160a01b0390911617825560209092019160019091019061034b565b5061038c9291506103cb565b5090565b828054828255906000526020600020908101928215610380579160200282015b828111156103805782518255916020019190600101906103b0565b5b8082111561038c57600081556001016103cc565b604080825283519082018190526000906020906060840190828701845b828110156104225781516001600160a01b0316845292840192908401906001016103fd565b5050508381038285015284518082528583019183019060005b818110156104575783518352928401929184019160010161043b565b5090979650505050505050565b634e487b7160e01b600052604160045260246000fd5b604051601f8201601f1916810167ffffffffffffffff811182821017156104a3576104a3610464565b604052919050565b600067ffffffffffffffff8211156104c5576104c5610464565b5060051b60200190565b600082601f8301126104e057600080fd5b813560206104f56104f0836104ab565b61047a565b82815260059290921b8401810191818101908684111561051457600080fd5b8286015b8481101561052f5780358352918301918301610518565b509695505050505050565b6000806040838503121561054d57600080fd5b823567ffffffffffffffff8082111561056557600080fd5b818501915085601f83011261057957600080fd5b813560206105896104f0836104ab565b82815260059290921b840181019181810190898411156105a857600080fd5b948201945b838610156105dc5785356001600160a01b03811681146105cd5760008081fd5b825294820194908201906105ad565b965050860135925050808211156105f257600080fd5b506105ff858286016104cf565b9150509250929050565b634e487b7160e01b600052603260045260246000fd5b634e487b7160e01b600052601160045260246000fd5b808201808211156106485761064861061f565b92915050565b6000600182016106605761066061061f565b506001019056fea26469706673582212204bfa6524fda12e8541fae51b454c5985a3078b707a8482962269ea4661d43edd64736f6c63430008150033",
    "linkReferences": {}
  },
  "methodIdentifiers": {
    "getComposition()": "08d72102",
    "setComposition(address[],uint256[])": "1b16d37d"
  },
  "id": 0
}